S01100004C6162355F416463732E73726563F5
S11300000C9434000C943E000C943E000C9452006A
S11300100C943E000C943E000C943E000C943E0064
S11300200C943E000C943E000C943E000C943E0054
S11300300C943E000C943E000C943E000C943E0044
S11300400C943E000C943E000C943E000C943E0034
S11300500C943E000C943E000C943E000C943E0024
S11300600C943E000C943E0011241FBECFEFD8E048
S1130070DEBFCDBF0E9440000C9464000C940000CD
S113008014B893E095B987B1826087B988B182606A
S113009088B98FEF8AB990936B0081E080936800F0
S11300A07894FFCF1F920F920FB60F9211248F9363
S11300B09F9395B180E2892785B99F918F910F9085
S10F00C00FBE0F901F901895F894FFCF0E
S9030000FC
