:100000000C9434000C9451000C9451000C94BD00DD
:100010000C9451000C9451000C9451000C9451001C
:100020000C9451000C9451000C9451000C9451000C
:100030000C9451000C9451000C9451000C945100FC
:100040000C94DD000C9451000C9451000C94510060
:100050000C9451000C9423010C9451000C94510009
:100060000C9451000C94510011241FBECFEFD8E026
:10007000DEBFCDBF11E0A0E0B1E0E4E8F2E002C0F5
:1000800005900D92A032B107D9F721E0A0E2B1E0CE
:1000900001C01D92A332B207E1F70E949B000C94AD
:1000A00040010C94000085B5836085BD8EEF86BD50
:1000B000EEE6F0E080818160808380E090E008954A
:1000C000CF93DF93CDB7DEB7A0970FB6F894DEBF1E
:1000D0000FBECDBF90E2E0E0F1E0DE0111960190AD
:1000E0000D929A95E1F7E82FF0E0EE0FFF1F81E007
:1000F00090E08C0F9D1FE80FF91F80818BB9A096AF
:100100000FB6F894DEBF0FBECDBFDF91CF9108953B
:100110008F70089582958F70089584E680937C0097
:10012000EAE7F0E088E880838081866080838081D0
:1001300080648083089580E284B983E085B99EE07D
:1001400097B992E098B99FEF9AB980936B0081E0DC
:10015000809368000E9453000E948D0078949091D3
:10016000210180912001891720F485B1806285B931
:10017000F6CF85B18F7D85B9F2CF1F920F920FB662
:100180000F9211248F9383B18370813041F08230BC
:1001900059F4809120018F5F8093200105C08091E8
:1001A0002001815080932001809120018BB98F9193
:1001B0000F900FBE0F901F9018951F920F920FB6C1
:1001C0000F9211242F933F934F935F936F937F93DD
:1001D0008F939F93AF93BF93EF93FF9386B18E70EE
:1001E000843061F0883091F08230A9F4809121014F
:1001F0000E948A000E94600024E00EC080912101CC
:100200000E9488000E94600028E006C080912001C2
:100210008BB922E001C022E098B1907F98B988B1F3
:10022000822B88B9FF91EF91BF91AF919F918F91F0
:100230007F916F915F914F913F912F910F900FBEE2
:100240000F901F9018951F920F920FB60F921124C6
:100250008F93EF93FF938091780080932201809198
:10026000790080932101EAE7F0E080818064808357
:10027000FF91EF918F910F900FBE0F901F901895E7
:04028000F894FFCF20
:10028400770042006D006B005A003B003F006200A3
:100294007F007A007E001F0035004F003D003C00C7
:00000001FF
