:100000000C9434000C9451000C9451000C94AA00F0
:100010000C9451000C9451000C9451000C9451001C
:100020000C9451000C9451000C9451000C9451000C
:100030000C9451000C9451000C9451000C945100FC
:100040000C94D3000C9451000C9451000C9451006A
:100050000C9451000C9419010C9451000C94510013
:100060000C9451000C94510011241FBECFEFD8E026
:10007000DEBFCDBF11E0A0E0B1E0E0E8F2E002C0F9
:1000800005900D92A032B107D9F721E0A0E2B1E0CE
:1000900001C01D92A632B207E1F70E9496000C94AF
:1000A0003E010C94000085B5836085BD8EEF86BD52
:1000B000EEE6F0E080818160808380E090E008954A
:1000C000CF93DF93CDB7DEB7A0970FB6F894DEBF1E
:1000D0000FBECDBF20E2E0E0F1E0DE01119601901D
:1000E0000D922A95E1F7880F991FE1E0F0E0EC0FFF
:1000F000FD1FE80FF91F80818BB980E090E0A0968A
:100100000FB6F894DEBF0FBECDBFDF91CF9108953B
:1001100084E480937C00EAE7F0E088E880838081D3
:1001200086608083808180648083089514B883E032
:1001300085B99EE097B992E098B99FEF9AB98093FC
:100140006B0081E0809368000E9453000E94880049
:100150007894FFCF1F920F920FB60F9211248F93B6
:100160009F9383B1813061F0823099F480912001B6
:10017000909121010196909321018093200109C063
:10018000809120019091210101979093210180930A
:100190002001809120018BB99F918F910F900FBE0C
:1001A0000F901F9018951F920F920FB60F92112467
:1001B0002F933F934F935F936F937F938F939F936F
:1001C000AF93BF93EF93FF9386B18E70843061F04D
:1001D000883091F08230A9F4809120019091210122
:1001E0000E94600024E00EC08091200190912101C6
:1001F0000E94600028E006C0809120018BB922E0B7
:1002000001C022E098B1907F98B988B1822B88B95B
:10021000FF91EF91BF91AF919F918F917F916F91DE
:100220005F914F913F912F910F900FBE0F901F90B4
:1002300018951F920F920FB60F9211248F939F93D0
:10024000EF93FF938091780090E090932501809345
:1002500024018091790090E0909323018093220102
:10026000EAE7F0E0808180648083FF91EF919F91C5
:100270008F910F900FBE0F901F901895F894FFCF9D
:10028000770044006B006D005C003D003F0064009F
:100290007F007C005F003E0039007A003F005F0075
:00000001FF
