:100000000C9434000C9446000C9446000C945A0056
:100010000C9446000C9446000C9446000C94460048
:100020000C9446000C9446000C9446000C94460038
:100030000C9446000C9446000C9446000C94460028
:100040000C9446000C9446000C9446000C94460018
:100050000C9446000C9446000C9446000C94460008
:100060000C9446000C94460011241FBECFEFD8E03C
:10007000DEBFCDBF21E0A0E0B1E001C01D92A03005
:10008000B207E1F70E9448000C9472000C94000043
:1000900014B893E095B987B1826087B988B182605E
:1000A00088B98FEF8AB990936B0081E080936800E4
:1000B0007894FFCF1F920F920FB60F9211248F9357
:1000C0009F9389B193B1913021F0923019F48F5FF1
:1000D00001C081508BB99F918F910F900FBE0F90EF
:0800E0001F901895F894FFCF62
:00000001FF
